:1000000029C0000042C0000040C000003EC0000007
:100010006CC600003AC0000038C0000036C00000C6
:1000200034C0000032C000005CC000002EC00000E0
:100030002CC000002AC0000028C0000098C10000A9
:10004000C8C1000022C0000020C000001EC0000087
:100050001CC0000011241FBECFE5D8E0DEBFCDBF1D
:1000600010E0A0E6B0E0E8E3FDE002C005900D92EC
:10007000A236B107D9F720E0A2E6B0E001C01D9298
:10008000A73FB207E1F7F7D155C6BACF87B380696A
:1000900087BBBE98C49AA79AAF9A8DB183658DB974
:1000A00083B78D6083BF8BE48CBF89B7826089BFC3
:1000B0000895809161000895809160000895909165
:1000C000610080916000981708F4892F08952091AD
:1000D00061008091600090E0820F911D9595879559
:1000E00008951F920F920FB60F9211242F938F93A2
:1000F0009F93AF93BF93EF93FF9380916900882301
:1001000071F010926900FF91EF91BF91AF919F91B3
:100110008F912F910F900FBE0F901F901895AF9851
:100120008AE18A95F1F700C01FB8779BFECF8FB1A7
:10013000E0916800F0E0EB59FF4F80838AE18A95F7
:10014000F1F700C01FB8779BFECF809168009FB188
:10015000E82FF0E0EE59FF4F90838F5F833048F532
:1001600080936800209166008091650090E0A0E097
:10017000B0E0820F911DA11DB11DB695A795979571
:10018000879580936100209163008091620090E0E8
:10019000A0E0B0E0820F911DA11DB11DB695A795FD
:1001A0009795879580936000AF9A81E0809369006E
:1001B000AACF10926800D6CF8E9A96988F9897986B
:1001C000A098A89887B38C7F87BB88B38C7F88BBA7
:1001D0000895879913C087EC90E00197F1F700C06C
:1001E000000087990AC087EC90E00197F1F700C002
:1001F0000000879902C081E00895089580E0089585
:10020000B19B02C080E0089587EC90E00197F1F780
:1002100000C00000B199089587EC90E00197F1F7D4
:1002200000C00000B199F7CF81E00895989B02C00B
:1002300080E0089587EC90E00197F1F700C000009E
:100240009899089587EC90E00197F1F700C00000BD
:100250009899F7CF81E00895B09B02C080E008959F
:1002600087EC90E00197F1F700C00000B099089585
:1002700087EC90E00197F1F700C00000B099F7CF4C
:1002800081E00895A39AD79AA19AD69A08958111E8
:1002900002C0AB980895AB9A0895811102C0DF980F
:1002A0000895DF9A0895811102C0A9980895A99A26
:1002B0000895811102C0DE980895DE9A089561952F
:1002C00087FD2AC0AA9AAC98882371F0880F990BF1
:1002D00001969BBD8ABD67FD0BC0AE9AAD986111BA
:1002E00014C019BC18BC08951BBC1ABC67FFF5CF1D
:1002F000AE98AD9A772761950CF47095660F771FCD
:100300006F5F7F4F79BD68BD0895660F770B6F5F94
:100310007F4F79BD68BD0895AA98AC9A99278195B9
:100320000CF49095880F991F01969BBD8ABDD3CF81
:1003300084B3846784BB85B38B7885BB81B38063CA
:1003400081BB82B38F7C82BB8FB5816A8FBD8EB536
:100350008B608EBD1BBC1ABC19BC18BC089588E408
:100360008AB986E880BD10BC80E189B908951F92E2
:100370000F920FB60F9211248F93EF93FF93E0919A
:100380006B0080916A00E81761F0F0E0E459FF4FDC
:1003900080818CB980916B008F5F813850F0109212
:1003A0006B00FF91EF918F910F900FBE0F901F90F8
:1003B000189580936B00FF91EF918F910F900FBE76
:1003C0000F901F90189583EE87B98FE886B9369AFB
:1003D00008951F920F920FB60F9211248F939F933F
:1003E0008091EC00811117C084B195B19093F20017
:1003F0008093F10084EC87B98091EC008F5F8330AB
:10040000D8F01092EC00369A9F918F910F900FBE0A
:100410000F901F9018958130C9F0823079F784B120
:1004200095B19093EE008093ED0083EC87B98091B5
:10043000EC008F5F833028F78093EC00369A9F9111
:100440008F910F900FBE0F901F90189584B195B1AA
:100450009093F0008093EF0085EC87B98091EC00D9
:10046000CDCF8091EF009091F00008958091ED0044
:100470009091EE00089506DF09DE5ADF9DDE8B982D
:10048000939A82B5877F82BD85B58F6085BD8FE0E9
:1004900083BD89B7806889BF62DF95DF789481E08A
:1004A000FCDE81E0F4DE81E0FEDE81E002DF839BA2
:1004B00008C08FE39CE90197F1F700C00000839921
:1004C000F6CF80E0EADE80E0E2DE80E0ECDE80E095
:1004D000F0DE81E0E2DE8FEF93ED20E3815090408B
:1004E0002040E1F700C0000083990CC081E0D5DE18
:1004F00081E0CDDE81E0D7DE81E0DBDE6FE78FE7F4
:10050000DEDEFFCF8FE39CE90197F1F700C000002A
:10051000839BECCF81E0BBDE8FEF93ED20E3815036
:1005200090402040E1F700C0000081E0BCDE8FEF8A
:1005300093ED20E3815090402040E1F700C000009F
:1005400081E0B7DE8FEF93ED20E3815090402040B3
:10055000E1F700C0000080E0A0DE80E098DE80E0EF
:10056000A2DE80E0A6DE8FEF99E628E18150904080
:100570002040E1F700C0000081E08FDE81E087DEEF
:1005800081E091DE81E095DE8FEF98EF25E18150EB
:1005900090402040E1F700C0000080E07EDE80E077
:1005A00076DE80E080DE80E084DE61E881E887DE60
:1005B0008FEF93ED20E3815090402040E1F700C0A1
:1005C00000006FE78FE77BDE8FEF93ED20E3815034
:1005D00090402040E1F700C00000C12CD12C7601F2
:1005E000C0E0D0E04090F3005090F4006090F5003F
:1005F0007090F60064DD8C3308F080C1C090F30089
:10060000D090F400E090F500F090F60081E051DE2B
:100610008091F3009091F400A091F500B091F60064
:1006200084199509A609B7098D3D9540A105B10525
:1006300008F017C13EDDB82E3FDDB81608F09FC1A7
:1006400081E02BDE80E023DE37DDB82E32DD2B2D7E
:1006500030E02950310990E0821793070CF0C5C1B2
:1006600028DDB82E29DD8B1508F0F4C16EEC8FE77C
:1006700026DE8090F3009090F400A090F500B090FA
:10068000F6008091F3009091F400A091F500B091F4
:10069000F60088169906AA06BB0609F018C199DD6E
:1006A000811107C0ADDD811104C0C0DD882309F4CC
:1006B0000AC18FDD882309F464C0C090F300D09094
:1006C000F400E090F500F090F6008091F300909136
:1006D000F400A091F500B091F60081E0E4DD79DD51
:1006E0008823E9F062E981E8EADD4091F300509166
:1006F000F4006091F5007091F6008091F300909104
:10070000F400A091F500B091F600841B950BA60BA8
:10071000B70B8A3F9105A105B10578F3D0E070DDF4
:1007200081117DC083DD81115CC096DD81113BC0EC
:10073000CEDC883C10F5CF5FC33008F4BACFD111BE
:100740008CC06FE781E8BBDD4091F3005091F4006D
:100750006091F5007091F6008091F3009091F400A3
:10076000A091F500B091F600841B950BA60BB70B7A
:10077000843F9140A105B10578F3C0E02ADD8111E5
:100780009CCF3EDD811199CF51DD811196CF64DD83
:10079000811193CF80E07BDD80E07FDD80E083DD31
:1007A00080E087DD1FCF6EE68FE789DD4091F300A3
:1007B0005091F4006091F5007091F6008091F30083
:1007C0009091F400A091F500B091F600841B950B78
:1007D000A60BB70B8A3F9105A105B10578F3D1E0CF
:1007E000A7CF6FE78EE66BDD4091F3005091F400E8
:1007F0006091F5007091F6008091F3009091F40003
:10080000A091F500B091F600841B950BA60BB70BD9
:100810008A3F9105A105B10578F3D0E086CF61E864
:1008200082E94DDD4091F3005091F4006091F500B4
:100830007091F6008091F3009091F400A091F50082
:10084000B091F600841B950BA60BB70B8A3F910560
:10085000A105B10578F3D1E065CF61E88FE72FDD21
:1008600073CFFFDD853608F093C0FBDD813508F4DA
:1008700017C16EEC81E823DD8090F3009090F400C6
:10088000A090F500B090F6008091F3009091F400F4
:10089000A091F500B091F60088199909AA09BB0941
:1008A000843F9140A105B10508F06EC092DC811132
:1008B00000CFA6DC8111FDCEB9DC8111FACECCDCF3
:1008C0008111F7CEE1CFC8DC8111F3CEDACEF1DBB6
:1008D000B82EF2DBD1E0B81608F4D0E07ADC811152
:1008E000E8CE8EDC8111E5CEA1DC8111E2CEB4DC54
:1008F0008111DFCEE4DB8C3308F480CE8091F300ED
:100900009091F400A091F500B091F600841995093A
:10091000A609B7090297A105B10508F4F7C0DD23C0
:1009200009F47FC16EEC8FE7CADC8090F3009090F1
:10093000F400A090F500B090F6008091F300909143
:10094000F400A091F500B091F60088199909AA0960
:10095000BB098C329140A105B10508F035C139DCE5
:100960008111A7CE4DDC8111A4CE60DC8111A1CE16
:1009700073DC81119ECEA3DB8C33F8F633CE81E09D
:1009800086DC80E08ADC60CE6FE78FE798DC2ACED9
:100990006DDD853608F469CF61E881E890DC8090F0
:1009A000F3009090F400A090F500B090F6008091D4
:1009B000F3009091F400A091F500B091F600881931
:1009C0009909AA09BB09843F9140A105B105E0F648
:1009D00000DC81116ECE14DC81116BCE27DC81111D
:1009E00068CE3ADC811165CEE2CF63DB182F64DB81
:1009F000212F30E02950310990E0821793070CF441
:100A00002FCE6FE78FE75BDC8090F3009090F400CF
:100A1000A090F500B090F6008091F3009091F40062
:100A2000A091F500B091F60088199909AA09BB09AF
:100A30000397A105B10508F04ACFCBDB811139CE70
:100A4000DFDB811136CEF2DB811133CE05DC811183
:100A500030CEE2CF6FE78EEC32DC8090F3009090E6
:100A6000F400A090F500B090F6008091F300909112
:100A7000F400A091F500B091F60088169906AA0638
:100A8000BB0609F024CFA5DB811113CEB9DB8111A0
:100A900010CECCDB81110DCEDFDB81110ACEE5CF8C
:100AA000E5DC813508F49ECD61E88EEC08DC8090B1
:100AB000F3009090F400A090F500B090F6008091C3
:100AC000F3009091F400A091F500B091F600881920
:100AD0009909AA09BB09843F9140A105B10508F015
:100AE00053CF77DB8111E5CD8BDB8111E2CD9EDB2E
:100AF0008111DFCDB1DB8111DCCDE1CFC090F300FE
:100B0000D090F400E090F500F090F600D8DA8D3344
:100B100008F4CFCD8091F3009091F400A091F500FE
:100B2000B091F6008C199D09AE09BF09803B944035
:100B3000A105B105E0F4BDDAB82EBEDAB81608F0AA
:100B4000CFC081E0AADB80E0A2DBD111C5C06FE796
:100B500081E8B5DB3EDB8111ACCD52DB8111A9CD43
:100B600065DB8111A6CD78DB8111A3CDCFCF6FE7F7
:100B70008FE7A5DB8090F3009090F400A090F50043
:100B8000B090F6008091F3009091F400A091F500F0
:100B9000B091F60088199909AA09BB098E359140D0
:100BA000A105B10508F0AACF14DB811182CD28DBA5
:100BB00081117FCD3BDB81117CCD4EDB811179CD65
:100BC0007EDA8C33F8F60ECD6FE78EEC78DB809012
:100BD000F3009090F400A090F500B090F6008091A2
:100BE000F3009091F400A091F500B091F6008819FF
:100BF0009909AA09BB0986399105A105B10508F033
:100C000085CFE7DA811155CDFBDA811152CD0EDBAC
:100C100081114FCD21DB81114CCD51DA8C33F8F6A7
:100C2000E1CC6FE78EEC4BDB8090F3009090F4000A
:100C3000A090F500B090F6008091F3009091F40040
:100C4000A091F500B091F60088199909AA09BB098D
:100C50008C329140A105B10590F4BBDA811106C038
:100C6000CFDA811103C0E2DA882311F0D0E021CD80
:100C7000F3DA8111FBCF23DA8C33F0F6B2CC6EECD1
:100C80008FE71DDB8090F3009090F400A090F500BA
:100C9000B090F6008091F3009091F400A091F500DF
:100CA000B091F60088199909AA09BB0986399105FE
:100CB000A105B10508F02ACF8CDA8111D7CFA0DACF
:100CC0008111D4CFB3DA8111D1CFC6DA8111CECF61
:100CD000F6D98C33F8F685CC61E88FE7F0DA3ACFB5
:100CE00081E0D5DA80E0D9DA30CF1F920F920FB6CB
:100CF0000F9211248F939F93AF93BF938091F30032
:100D00009091F400A091F500B091F6000196A11D1C
:100D1000B11D8093F3009093F400A093F500B0937D
:100D2000F600BF91AF919F918F910F900FBE0F90E2
:080D30001F901895F894FFCF05
:020D3800FFFFBB
:00000001FF
